:1000000009C016C015C014C013C012C011C010C062
:100010000FC00EC011241FBECFE9CDBF10E0A0E677
:10002000B0E001C01D92A336B107E1F702D019C1BB
:10003000E7CF6F927F928F929F92AF92BF92CF92B3
:10004000DF92EF92FF921F93CF93DF9380E04BE319
:10005000642E712C37E2832E912C23E1A22EB12C39
:1000600012E390EFC92ED12CC0E0D0E0E82EFF249F
:10007000E7FCF094CE018E0D9F1D6CE370E0CAD0BA
:100080009C018A3091051CF41092610039C08431C2
:1000900091055CF41092610010936000C501821B11
:1000A000930B65E070E0A4D023C08E3191052CF451
:1000B00065E070E09DD0845609C0883291056CF4EB
:1000C000C401821B930B65E070E092D080936100C5
:1000D00010936000109262001AC0823391055CF4A4
:1000E000109261001093600065E070E081D0885C40
:1000F000809362000CC010926100C301821B930BBD
:1001000065E070E075D0809360001093620080E637
:1001100090E061E04FD02196C431D10509F0AACF1B
:1001200084EF91E0F6013197F1F70197D9F7C70114
:1001300001966CE370E06ED097CFFC0187B3842BFF
:1001400087BB88B3242F2095282398B3942B3FB7DF
:10015000F8940EC0819148E098BB000087FF28BB4F
:10016000880F00C000C028BB4A95B1F761507040AD
:100170006115710579F73FBF089541E0DEDF08950D
:10018000660F771F660F771F41E0D7DF80ED92E0A3
:100190000197F1F708959B01220F331F260F371F98
:1001A000B901CBDF80ED92E00197F1F7089541E0CE
:1001B000F2DF089527B3262B27BB28B3562F50957F
:1001C000522348B3462B6FB7F894FC0193E00CC060
:1001D000819128E048BB000087FF58BB880F00C012
:1001E00000C058BB2A95B1F7915090F76FBF0895A2
:1001F0005527002480FF02C0060E571F660F771F89
:100200006115710521F096958795009799F7952FBF
:10021000802D089597FB092E07260AD077FD04D07C
:100220000CD006D000201AF4709561957F4F089588
:10023000F6F7909581959F4F0895AA1BBB1B51E13E
:1002400007C0AA1FBB1FA617B70710F0A61BB70B46
:10025000881F991F5A95A9F780959095BC01CD01EB
:060260000895F894FFCFA1
:00000001FF
