:1000000009C021C020C01FC01EC01DC01CC01BC015
:100010001AC019C011241FBECFE9CDBF10E0A0E661
:10002000B0E0E4E2F2E002C005900D92AC36B10718
:10003000D9F720E0ACE6B0E001C01D92AF36B207C0
:10004000E1F7A7D0EDC0DCCF9C0108976CF481E00C
:1000500090E0AC0102C0440F551F2A95E2F79A01C7
:1000600080916100822308952850310981E090E059
:10007000AC0102C0440F551F2A95E2F79A01809106
:100080006000F0CF9C01089774F481E090E0AC012F
:1000900002C0440F551F2A95E2F780916100842722
:1000A0008093610008952850310981E090E0AC010F
:1000B00002C0440F551F2A95E2F780916000842703
:1000C0008093600008959C01CB0157B3542B57BB1C
:1000D00068B3542F5095562368B3462B6FB7F894E6
:1000E000820F931F2817390711F46FBF0895F90184
:1000F00071919F01E8E048BB000077FF58BB770F84
:1001000000C000C058BBEA95B1F7ECCF9C01CB0111
:1001100063E070E074D0BC01C901D5DF8FEC92E0E0
:100120000197F1F700C00000089541E0EFCF660F9E
:10013000771F660F771F41E0C6DF8FEC92E00197D3
:10014000F1F700C00000089541E0BDCF9C0187B3E6
:10015000862B87BB98B3862F8095892398B3692B0C
:100160009FB7F894A9014D5F5F4F2417350711F42D
:100170009FBF0895F90171919F01E8E068BB0000FD
:1001800077FF88BB770F00C000C088BBEA95B1F746
:10019000ECCF82E380936D0002E610E0D0E0C0E097
:1001A000F80181918F0180936C0061E08CE690E012
:1001B000CDDFCE0149DFF80122919FEF811191E05F
:1001C000290F2083022E000C330B811115C085E00E
:1001D00090E02817390711F4CE0154DF2196CA3078
:1001E000D105F1F6FFEF26E781E0F1502040804095
:1001F000E1F700C00000D0CF88E290E0EACF002411
:10020000552704C0080E591F880F991F009729F021
:1002100076956795B8F37105B9F7802D952F0895F8
:04022000F894FFCF80
:0C022400039D0B141E271E140F0B0F145B
:00000001FF
